:020000040800F2
:1000000008080020F1010008633900086331000886
:100010006139000839090008B148000800000000F3
:10002000000000000000000000000000E53C0008A7
:100030003B0900080000000065390008E73C0008A3
:100040000B0200080B0200080B0200080B0200085C
:100050000B0200080B0200080B0200080B0200084C
:100060000B0200080B0200080B0200080B0200083C
:100070000B0200080B0200080B0200080B0200082C
:100080000B02000800000000B90800080B0200087D
:100090000B0200080B0200080B0200080B0200080C
:1000A0000B0200080B0200080B0200080B020008FC
:1000B000813D00088D3D00080B0200080B0200087E
:1000C0000B0200080B0200080B0200080B020008DC
:1000D0000B020008A54800080B0200080B020008EC
:1000E0000B0200080B0200080B0200080B020008BC
:1000F0000B0200080B0200080B02000800000000C1
:10010000000000000B020008000000000B020008C5
:100110000B02000800000000993D00080B020008D7
:100120000B0200080B0200080B0200080B0200087B
:100130000B02000800000000000000000B02000895
:100140000B0200080B020008000000000000000085
:10015000000000000000000000000000000000009F
:100160000000000000000000000000000B0200087A
:100170000B0200080000000000000000000000006A
:10018000000000000B02000800000000000000005A
:10019000000000000000000000000000000000005F
:1001A00000000000000000000B0200080B02000825
:1001B0000B0200080B0200080B0200080000000000
:1001C000000000000B02000800000000000000001A
:1001D0000B0200080B020008DFF810D000F05AFBF9
:1001E00000480047B1510008AFF300800808002024
:1001F0000648804706480047FEE7FEE7FEE7FEE7C1
:10020000FEE7FEE7FEE7FEE7FEE7FEE7713D0008DA
:10021000D90100082DE9F05F0546002092469B4673
:1002200088460646814640241BE02846414647460C
:10023000224600F060FA53465A46C01A914110D344
:1002400011461846224600F047FA2D1A67EB0108BE
:100250004F4622460120002100F03EFA17EB00092C
:100260004E41201EA4F10104DFDC484631462A46F7
:100270004346BDE8F09FD2B201E000F8012B491ED1
:10028000FBD270470022F6E710B513460A46044633
:100290001946FFF7F0FF204610BD421C10F8011B65
:1002A0000029FBD1801A704710B5002200E0521CD3
:1002B000835C8C5CA34201D1002BF8D1D8B2E1B2AF
:1002C000401A10BD2DE9FE4F804681EA0300C00FA1
:1002D0000C46009021F0004123F00045B8EB0200ED
:1002E000A94105D24046214690461C460B4602468F
:1002F00023F00040104347D0270DC7F30A00C3F393
:100300000A510290401A019040286BDAC3F313009F
:1003100040F4801B0098924620B10023D2EB030AE0
:1003200063EB0B0B01985946C0F14002504600F0B8
:10033000D3F906460D4650465946019A00F0EBF9AE
:1003400010EB08006141002487EA115284EAE77348
:100350001A4340D0009A62B3019A012A4FEA075229
:1003600015DC001B61EB02014FF0004202EA07526C
:10037000CDE90042001C41F5801132462B4600F0C9
:1003800022FA03B0BDE8F08F40462146F9E7001B92
:1003900061EB0201001C41F5801300185B4120183D
:1003A000A2F5001747EB030140EAD570B6196D417D
:1003B00011E06D084FEA360645EAC0754FEA07526C
:1003C000001B61EB0201001C41F5801149084FEA56
:1003D00030000019514132462B4603B0BDE8F04FC2
:1003E00000F0E2B90098012240000023D0EB0202A5
:1003F00063EBE073009821464FEAE074B8EB00002D
:1004000061EB0401E9E783F000435BE781F0004121
:1004100058E72DE9FE4F81EA030404F0004421F07F
:10042000004100944FF0000B23F0004350EA010418
:100430005ED052EA03045BD0C3F30A54C1F30A55F9
:100440002C44A4F2F3340194A0FB0254C1F3130131
:1004500041F48011C3F3130343F4801301FB0244FE
:1004600000FB034E840A970A44EA815447EA835703
:10047000A4FB076802958D0A05FB07854FEA932CBC
:1004800004FB0C542705029D4FEA065847EA16372D
:10049000B5EB08056EEB070C870E920E47EA811745
:1004A00042EA8312A7FB0201B6EB0B0164EB0004E6
:1004B0002B0D43EA0C335E1844EB1C50DA465146D0
:1004C000E7FB0201C5F313044FEA0B3343EA14536D
:1004D0004FEA0432019C43EA0603A4F10C0402949F
:1004E000009CCDE900B400F06EF903B0BDE8F08FD8
:1004F00000200146F9E72DE9F04D81EA030404F0FC
:10050000004B21F0004514464FF0000A23F0004153
:1005100050EA050220D054EA01021DD0C5F30A5763
:100520000246C5F31303C1F31300C1F30A5640F4A6
:10053000801543F48013A7EB0608101BD64608F27B
:10054000FD3873EB050002D308F1010801E09218B1
:100550005B41B8F1000F03DA00200146BDE8F08DE1
:1005600000204FF48011064684460EE0171B73EB03
:10057000050705D3121B63EB050306434CEA010C88
:1005800049084FEA300092185B4150EA0107EDD16B
:1005900052EA030012D082EA040083EA050108430C
:1005A00005D0101BAB4106D20122002306E0002239
:1005B0004FF0004302E06FF0010253101AEB060007
:1005C0004CEB085110EB0A0041EB0B01BDE8F04D7C
:1005D00000F0EAB80EB540F2334102910021CDE9B6
:1005E00000110A460B4600F0EEF803B000BD00F023
:1005F000004230F000400AD0C10D01F56071C0F337
:10060000160042EA0151C20840071143704700201A
:100610000146704730B5041E71F1000404DB4FF051
:100620000044404264EB0101141E73F1000405DB39
:100630001C464FF00043524263EB04038B4208BF59
:10064000824230BD30B5041E71F1000404DB4FF06E
:100650000044404264EB0101141E73F1000405DB09
:100660001C464FF00043524263EB0403994208BF1B
:10067000904230BD01F0004330B421F0004150EA17
:10068000010206D00A0DA2F56072C1F31301002A1F
:1006900002DC30BC00207047440F44EAC104C100B2
:1006A000E01830BC00EBC25000F047B830B50B4644
:1006B000014600202022012409E021FA02F59D4292
:1006C00005D303FA02F5491B04FA02F52844151E66
:1006D000A2F10102F1DC30BD202A04DB203A00FA4D
:1006E00002F1002070479140C2F1200320FA03F389
:1006F000194390407047202A04DB203A21FA02F087
:100700000021704721FA02F3D040C2F1200291404B
:10071000084319467047202A06DBCB17203A41FAD6
:1007200002F043EAE07306E041FA02F3D040C2F17E
:10073000200291400843194670470029A8BF70471E
:10074000401C490008BF20F00100704710B4B0FA07
:1007500080FC00FA0CF050EA010404BF10BC7047A2
:1007600049B1CCF1200421FA04F411FA0CF118BFBC
:10077000012121430843A3EB0C01CB1D4FEA00618B
:100780004FEA102042BF002010BC704700EBC3505E
:1007900010440029A4BF10BC7047401C490008BF8A
:1007A00020F0010010BC704710B5141E73F1000456
:1007B00008DA401C41F1000192185B411A4301D153
:1007C00020F0010010BD2DE9F04D92469B4611B17D
:1007D000B1FA81F202E0B0FA80F220329046FFF7DF
:1007E0007BFF04460F4640EA0A0041EA0B015346EC
:1007F0005A46084313D0114653EA010019D0C8F1F4
:1008000040025046FFF777FF05460E4650465946D0
:100810004246FFF761FF084305D0012004E020466F
:100820003946BDE8F08D0020054346EAE0762C43CA
:1008300037430A986305E40AA0EB08000022FD0A8A
:1008400044EA47540A3002D500200146E9E7010591
:1008500010196941DDE9084500196941BDE8F04D0D
:10086000A2E7C1F30A52C1F3130140F2FF3341F48E
:1008700080119A4202DA00200146704740F2334369
:100880009A42A2F2334202DC5242FFF734BFFFF732
:1008900023BF0000064C074D06E0E06840F001036E
:1008A00094E8070098471034AC42F6D3FFF798FC61
:1008B000006B0008206B0008014800F08FBA0000B0
:1008C000F001002070B504460068816811F0010F46
:1008D0002DD18168174A11421AD18168D543294028
:1008E000491C816000F0D2FE06461BE0816811F0D1
:1008F000010F03D181682940491C816000F0C6FEC8
:10090000801B02280ED920680068C043C00709D0A8
:10091000E06D40F01000E065206E40F001002066C0
:10092000012070BD20680168C943C907DED10020DD
:1009300070BD00003F000080FEE77047002240F6D7
:10094000B83306E00021491C89B29942FBD3521CFE
:1009500092B28242F6D3704772B6FEE710B50446F3
:1009600000F0A8FC204600F035FAFFF733FE9FEDBB
:10097000081B53EC112BFFF74CFD9FED071B53ECAD
:10098000112BFFF746FDFFF775FE00EE100A10BDB4
:100990006666666666660A40000000000000303F3A
:1009A0007047704770477047704700002DE9F84F57
:1009B00000270446009790F85800DFF8E0930D46B2
:1009C000B846012811D0012684F85860206802F04A
:1009D00005FE60B1E06D40F02000E0655FF00107CA
:1009E00084F858803846BDE8F88F0220FBE7D5E947
:1009F00000210C23206803EA91131844036B01F0D3
:100A00001F014FF01F0C0CFA01FCC2F3846223EAB1
:100A10000C038A4013430363206802F0DFFD824623
:100A2000206802F0D7FD5AEA00003CD1AA68296884
:100A30002068B2F1004F37D002F0DCFD2068416938
:100A400021F00041416120686969C268C2F3C102B6
:100A5000520091402A69042A31D000EB82002B68B1
:100A6000026EDFF83CC303F0F84302EA0C020B43CA
:100A70001A4342F00041016620682A69A96900EB27
:100A80008200026E22F080720A430266297F226889
:100A90002869012910D0002102EB8000026E22F0AB
:100AA00000720A4302667DE0002202F0A3FD206886
:100AB000416941F00041C5E74FF00071ECE70021CA
:100AC00002F082FD400320684FF0000172D002F076
:100AD0007BFD90FAA0F0B0FA80F1286842036ED056
:100AE00090FAA0F0B0FA80F0814204D100221146C1
:100AF000206802F08EFD0121206802F065FD4003B0
:100B000020684FF001015DD002F05EFD90FAA0F088
:100B1000B0FA80F12868420359D090FAA0F0B0FAF8
:100B200080F0814204D100220121206802F071FD91
:100B30000221206802F048FD400320684FF00201C6
:100B400048D002F041FD90FAA0F0B0FA80F1286898
:100B5000420344D090FAA0F0B0FA80F0814204D170
:100B600000220221206802F054FD0321206802F0D7
:100B70002BFD400320684FF0030133D002F024FD29
:100B800090FAA0F0B0FA80F1286842032FD090FAD2
:100B9000A0F0B0FA80F0814204D100220321206845
:100BA00002F037FD2068816811F0010F22D0ACE01F
:100BB00000E004E002F008FDC0F384618DE7C0F3BB
:100BC000846091E702F000FDC0F38461A2E7C0F306
:100BD0008460A6E702F0F8FCC0F38461B7E7C0F3D5
:100BE0008460BBE702F0F0FCC0F38461CCE7C0F3A3
:100BF0008460D0E72A7B296850F8B03FC1F3120C1B
:100C000023EA0C0302F0180C664A22FA0CF20A409E
:100C100013430360E968494577D1286841031CD034
:100C200090FAA0F1B1FA81F1491C01F01F010929E4
:100C30004FEA403132D8002912D000BF90FAA0F11B
:100C4000B1FA81F101F1010101F01F0106FA01F68B
:100C500009D100BFC0F3846109E0C0F38461E3E718
:100C6000C0F38461EEE790FAA0F1B1FA81F101F1ED
:100C7000010101F01F0146EA816102D1C0F38460E5
:100C800003E090FAA0F0B0FA80F000F1010000F06B
:100C90001F0000EB400041EA005132E000290ED075
:100CA00090FAA0F1B1FA81F101F1010101F01F0107
:100CB00006FA01F606D100BFC0F3846106E0C0F376
:100CC0008461F1E790FAA0F1B1FA81F101F101013B
:100CD00001F01F0146EA816102D1C0F3846003E0A4
:100CE00090FAA0F0B0FA80F000F1010000F01F00CF
:100CF0002D4A00EB400002EB005041EA000141F0B8
:100D00000071AA68206802F075FC28482A6802422F
:100D10003FF466AE26488168264B01F0E0719A42A6
:100D200002D0254B9A421CD10B021AD42268B2F190
:100D3000A04F7FF455AE826841F4000122F0E072CA
:100D40000A4382601D481E490068B0FBF1F0401C58
:100D500000EB4000800000E0401E00900028FBD126
:100D60003EE6184D184BAA4207D1CD0105D42268A2
:100D70009A42F5D041F0807109E0144DAA42EFD1BA
:100D80004A02EDD422689A42EAD041F48001826896
:100D900022F0E0720A43826022E6000000007F40F9
:100DA00000F0FF03FFFF0700000020FE00000880A6
:100DB00000030050000021C31000C0907800002004
:100DC000400D0300000052C700010050000084CB1A
:100DD000704770470068006C704700002DE9F05FB5
:100DE0000446006806684568DFF854B2DBF808007E
:100DF00000F01F07B0070ED5A8070CD5E06DC006A0
:100E000003D4E06D40F40060E0652046FFF7C8FDC4
:100E1000216802200860DFF82CA270074FF0A0487C
:100E200001D5680703D4300737D5280735D5E06DDD
:100E3000C00603D4E06D40F40070E065206802F065
:100E4000D1FB20B32068504501D1424600E0024664
:100E5000824208D03FB1052F05D0092F03D050455D
:100E600003D1414602E0C16801E00146C968890436
:100E70000DD4016809070AD502F0B0FB58B3E06D44
:100E800040F01000E065206E40F001002066204632
:100E9000FFF79EFF21680C200860B00601D5A80668
:100EA00003D4700658D5680656D5E06DC00603D445
:100EB000E06D40F40050E0652068C16C11F4C07F23
:100EC0001AD00021894602F08DFB02462068504569
:100ED00014D1434613E02068416821F00C014160C1
:100EE000E06D20F48070E065E06DC004CFD4E06D6B
:100EF00040F00100E065CAE70121E3E703468342D1
:100F000008D03FB1062F05D0072F03D0504503D19D
:100F1000414602E0C16801E00146C968B9F1000F2D
:100F200014D08B0102D58AB18A040FD4026852060C
:100F30000CD589020AD402F04DFBE8B3E06D40F015
:100F40001000E065206E40F0010020662046FFF7AB
:100F500028FD21686020086030060BD5280609D5D9
:100F6000E06D40F48030E065204600F06BF92168C8
:100F700080200860F0050CD5E8050AD5E06D40F446
:100F80000030E0652046FFF70EFD21684FF48070C9
:100F90000860B0050CD5A8050AD5E06D40F48020A6
:100FA000E0652046FFF700FD21684FF400700860FF
:100FB000F0062ED5E80600E008E02AD5E06BD0B1B7
:100FC000AFB1DBF8080000F4604013E0206841682E
:100FD00021F060014160E06D20F48050E065E06D3B
:100FE000C005B3D4E06D40F00100E065AEE72068D5
:100FF000C068C00750B1E06D40F48060E065206ECD
:1010000040F0020020662046FFF7E3FE2168102032
:101010000860700512D5680510D5E06D40F4804079
:10102000E065206E40F00800206621684FF4806083
:1010300008602046BDE8F05FFFF7B4BCBDE8F09F54
:101040000003005000010050F8B54FF00005040007
:101050002E46009502D0E06D10B107E00120F8BDEA
:10106000204600F0F1F8266684F858602068816810
:10107000C1F3407119B181686A4A114081602068EA
:101080008168C1F3007189B98168674A114041F0F4
:1010900080518160654866490068B0FBF1F040000E
:1010A000801C00E0401E00900028FBD12068816871
:1010B000C1F3007141B9E16D41F01001E165216EAC
:1010C00041F001012166012502F088FAE16DC906AF
:1010D00000D430B1E06D40F01000E06501252846F5
:1010E000F8BDE06D20F4807040F00200E0652068FB
:1010F000806810F0010F11D14FF0A04080684D4979
:1011000000F00100896801F00101084306D14A4856
:101110006168826822F47C120A438260E168E06BB5
:10112000627F0843A16841EA4231084394F82410E1
:1011300040EA0140012904D1218D404A02EB41419E
:101140000843E16A29B101F47871226B014342EA54
:1011500001002168CA683A4B1A400243CA602068FD
:101160000169626B21F0406111430161206802F066
:1011700035FA0646206802F02DFA30432ED1207F42
:1011800094F83810800340EA41022068C16844F2B4
:10119000020399431143C160206900282068016956
:1011A0000AD041F480310161206850F8C01F2269E3
:1011B0006FF30D01114307E021F4803101612068D4
:1011C00050F8C01F6FF30D01016094F84000012832
:1011D0000CD02068016921F00101016160690128DA
:1011E0002068016B21F00F0111D013E0D4E9110147
:1011F0000843D4E913121143084321680A6940F2F5
:10120000FC739A43104340F001000861E6E7226A4C
:10121000521E11430163E06D20F0020040F0010016
:10122000E0655CE7C0FFFF5FC0FFFF7F7800002044
:10123000400D030000010050000300500000FEFFBD
:101240000740F0FF7047000010B586B00446142137
:101250006846FFF717F815492068884223D11448DB
:10126000C16C41F40051C164C16C01F4005105919D
:10127000C16C41F00101C164C06C694600F001001D
:1012800005901020009003200190002002904FF064
:10129000904000F00DF900221146122000F05CFA97
:1012A000122000F04BFA06B010BD00000001005003
:1012B000001002402DE9F04104463848806800F0F3
:1012C0001F05206802F08AF918B102210846BDE81E
:1012D000F08194F8580001280CD0012084F85800BF
:1012E0002046FFF7EFFA01004FF0000304D084F826
:1012F0005830EBE70220EAE7E06D40F601629043E8
:1013000040F48070E065264A20684FF0A046904285
:1013100001D1374600E00746874200D01DB9E76D8E
:1013200027F48017E765E76DFF0404D5276E27F0E3
:101330000607276600E023661C27076084F85830FC
:101340002068904201D1334600E00346834215D025
:10135000A5B1052D12D0092D10D0E36D43F48013F3
:10136000E365904200D13046C0688001AED5E06DA3
:1013700020F4005040F48050E065A7E7C268920175
:1013800005D5E26D22F4005242F48052E265826893
:10139000044B1A40121D826098E7000000030050C1
:1013A00000010050C0FFFF7F10B590F825300021EC
:1013B0000122022B03D00421C163012122E0036832
:1013C0001C6824F00E041C60836C1C6824F4807478
:1013D0001C6003681C6824F001041C6090F8443011
:1013E000046C03F01F0302FA03F36360D0E91334C3
:1013F0005C60436D33B11C6824F480741C60D0E9D8
:1014000016345C6080F82520002280F824200846ED
:1014100010BD70B590F82520002401212346022A32
:1014200007D00422C26380F8251080F824300124FC
:1014300029E00268156825F00E0515600268156838
:1014400025F001051560826C156825F4807515601E
:1014500090F84420056C02F01F0201FA02F26A6063
:10146000D0E913255560426D32B1156825F48075B9
:101470001560D0E91625556080F8251080F82430D5
:10148000816B01B18847204670BD000070B50446ED
:1014900000F0FCF80546601C02D004484068044493
:1014A00000F0F4F8401BA042FAD370BD6C0000209D
:1014B0002DE9FC4FDFF8A0A1002301250AF1040B60
:1014C00003244FF00F0C0BF1040EBDE005FA03F6F8
:1014D00032406FD04F68012F05D0022F03D0112F5B
:1014E00001D0122F17D1D0F808905F0004FA07F846
:1014F00029EA08090097D1F80C8008FA07F848EAA9
:101500000908C0F808804768B7430E79C6F300168B
:101510009E403E434660C6684FEA430804FA08F717
:10152000BE4301978F6807FA08F73743C7604E68D4
:10153000022E01D0122E13D1DE0800EB8606009693
:10154000366A5F07FF0E0CFA07F926EA0906D1F89A
:10155000109009FA07F949EA0609009EC6F820909A
:101560000668019FBE430F7907F0030707FA08F7E3
:10157000374307604E68F60065D5384E376E47F042
:1015800001073766366E23F0030706F00106009662
:10159000334E3E44B146B6689F074FEA17780CFABF
:1015A00008F7BE43B0F1904F05D02E4FB84204D19A
:1015B000012717E047E0002714E02B4FB84201D184
:1015C00002270FE0294FB84201D103270AE0284F34
:1015D000B84201D1042705E0264FB84201D10527C2
:1015E00000E0062707FA08F73743C9F80870DAF869
:1015F00000605746D1F8048096435FEAC83800D5AA
:1016000016433E60DBF800605F46D1F804809643E5
:101610005FEA883800D516433E60DEF80060774602
:10162000D1F8048096435FEAC82800D516433E608F
:10163000094F0C373E68D1F8048096435FEA88284A
:1016400000D516433E605B1C0A6832FA03F67FF44D
:101650003DAFBDE8FC8F00000004014000100240D7
:10166000000001400004004800080048000C004849
:1016700000100048001400480069084000D0012014
:1016800070470AB181617047816270470148806884
:10169000704700006C0000200248816842681144D5
:1016A000816070476C00002010B50024032000F01A
:1016B00073F8002000F008F808B1012401E000F000
:1016C00025F8204610BD000070B50E4E05460024DA
:1016D000706898B14FF47A71B1FBF0F00A4909686B
:1016E000B1FBF0F000F064FD40B9102D06D20022ED
:1016F0002946501E00F030F8356000E001242046F5
:1017000070BD00006C000020780000200A4882B004
:10171000016E41F001010166016E01F001010091CD
:10172000816D41F080518165806D00F080500090A6
:1017300002B000F0A1B8000000100240002809DB50
:1017400000F01F02012191404009800000F1E020DB
:10175000C0F8001170470000F0B40E4B1B680C4637
:10176000C3F30223C3F10705042D00D90425191D75
:10177000072901D2002300E0DB1E012606FA05F14D
:10178000491E214099409E40761E16403143F0BCD0
:1017900003F0A4B80CED00E0064900F00702086869
:1017A0004FF6FF03184040EA0220034A1043086046
:1017B000704700000CED00E00000FA052B492C4BAF
:1017C0000A6832214A432B4940B1B0F5007F0868CE
:1017D00029D020F4C06040F480602CE00868C0F399
:1017E0004120022804D051F8800F20F4807022E0BC
:1017F000D1F8800020F48070C1F88000086820F4DF
:10180000C06040F400700860B2FBF3F0401C00E0E0
:10181000401E4A69520501D50028F9D148694005A2
:101820000AD503207047C0F34120022806D051F8A2
:10183000800F40F48070086000207047D1F880006D
:1018400040F48070C1F88000086820F4C06040F463
:1018500000700860B2FBF3F0401C00E0401E4A69D3
:101860005205DBD50028F9D1D8E700007800002028
:1018700040420F00007000400248816841F48041FE
:1018800081607047007000402DE9F843044600680D
:1018900000269D4D00035ED5A86D0027C00008D42A
:1018A000A86D40F08050A865A86D012700F0805019
:1018B0000090DFF85892D9F8001041F48071C9F80F
:1018C0000010FFF7E3FE804606E000BFFFF7DEFEF4
:1018D000A0EB080002282BD8D9F80000C005F5D5E8
:1018E000D5F8900010F4407014D0216C814211D0D2
:1018F000D5F89000D5F8901020F4407041F4803174
:10190000C5F89010D5F8901021F48031C5F89010EA
:10191000C5F89000C00711D0FFF7B8FE804641F22D
:10192000883907E0FFF7B2FEA0EB0801494501D96D
:1019300003260BE0D5F890008007F3D5D5F890008A
:10194000216C20F440700843C5F890001FB1A86DC9
:1019500020F08050A8652078C00707D0D5F888000F
:10196000616820F003000843C5F8880020788007EC
:1019700007D5D5F88800A16820F00C000843C5F809
:1019800088002078400707D5D5F88800E16820F066
:1019900030000843C5F888002078000707D5D5F83F
:1019A0008800216920F0C0000843C5F8880020782D
:1019B000800607D5D5F88800616920F440600843A7
:1019C000C5F888002078400607D5D5F88800A169B9
:1019D00020F440500843C5F888002078000607D559
:1019E000D5F88800E16920F440400843C5F8880034
:1019F0002088C00507D5D5F88800216A20F440303A
:101A00000843C5F888002088800507D5D5F88800E8
:101A1000616A20F440200843C5F88800208840050A
:101A20000FD5D5F88800A16A20F440100843C5F806
:101A30008800A06AB0F5801F03D1E86840F48010E8
:101A4000E860208800050FD5D5F88800E16A20F409
:101A500040000843C5F88800E06AB0F5800F03D164
:101A6000E86840F48010E8602088C0040FD5D5F8FD
:101A70008800216B20F040700843C5F88800206B77
:101A8000B0F1807F03D1E86840F48010E8602088DE
:101A90004FF0006180040ED5D5F88800626B20F00D
:101AA00040601043C5F88800606B884203D1E86845
:101AB00040F48010E860208840040ED5D5F88800F6
:101AC000A26B20F040601043C5F88800A06B8842EC
:101AD00003D1E86840F48010E860208800040FD546
:101AE000D5F88800E16B20F040500843C5F8880025
:101AF000E06BB0F1805F03D1E86840F48030E860CB
:101B00003046BDE8F883000000100240007000403D
:101B10002DE9F0470E4605004FF0000725D0DFF80D
:101B2000AC81D8F8000000F00F00B0420CD2D8F819
:101B3000001021F00F013143C8F80010D8F8000060
:101B400000F00F00B04210D12968614CC80741F283
:101B5000883A5AD06868DFF87C91032808D00228B8
:101B600020682DD0400500282CDB0120BDE8F0873F
:101B700020688001F9D5E06800F00302E068C0F356
:101B80000310401C032A19D0534A00BFB2FBF0F0E7
:101B9000E268C2F306225043E268C2F34162521C7B
:101BA0005200B0FBF2F0484517D9A06810F0F00FD2
:101BB0000CD0880711D5A86840B10EE0474AE5E788
:101BC0008003D0E700F0B6F8484506D9A06820F0B9
:101BD000F00040F08000A0608027A068696820F0D5
:101BE00003000843A060FFF751FD814606E000BFF7
:101BF000FFF74CFDA0EB090151453AD8A068696890
:101C000000F00C00B0EB810FF2D12868810714D5E9
:101C1000400703D5A06840F4E060A0602878000782
:101C200005D5A06820F4605040F4E060A060A06892
:101C3000A96820F0F000084304E0802F03D1A068D9
:101C400020F0F000A060D8F80010404601F00F012D
:101C5000B14216D9016821F00F0131430160FFF74D
:101C600015FD074607E000BFFFF710FDC11B5145FA
:101C700001D903207AE7D8F8000000F00F00B04245
:101C8000F2D12878400705D5A068E96820F4E06023
:101C90000843A0602878000706D5A068296920F4C9
:101CA000605040EAC100A06000F044F8A1680C4A0E
:101CB000C1F30311515C01F01F01C84009490860DC
:101CC00009480068BDE8F047FFF7FEBC002002406D
:101CD0000010024000B4C4040024F40000366E0179
:101CE00018590008780000206C00002005480649BB
:101CF00000688968054AC1F30221515C01F01F01A7
:101D0000C8407047780000200010024028590008A1
:101D10000548064900688968054AC1F3C221515C3B
:101D200001F01F01C84070477800002000100240F9
:101D300028590008184910B58868C0F3810217486F
:101D4000012A0BD08A68164BC2F38102022A06D000
:101D50008A68C2F38102032A03D0002010BD18460E
:101D600010BDCA6802F00304CA68C2F30312521C11
:101D7000032C02D0B0FBF2F001E0B3FBF2F0CA6832
:101D8000C968C2F306225043C1F34161491C4900AE
:101D9000B0FBF1F010BD0000001002400024F40080
:101DA00000366E012DE9F84304007AD02078FA4D10
:101DB000C00747D0A868E96800F00C0001F00301F3
:101DC0000C2802D0082817D001E0032914D060683D
:101DD000B0F5803F17D0B0F5A02F286817D020F4B9
:101DE00080302860286820F4802028606068E0B196
:101DF000FFF74CFC064614E02868800322D5606893
:101E00000028D2D01EE0286840F48030EDE740F48E
:101E100080202860F7E700BFFFF738FC801B6428AC
:101E200070D828688003F7D50CE0FFF72FFC064632
:101E300005E000BFFFF72AFC801B6428F0D8286863
:101E40008003F7D4207880074CD5A868E96800F0B3
:101E50000C0001F003010C2802D004280DD001E091
:101E600002290AD0E068002828682BD040F480704E
:101E70002860FFF70BFC064619E02868400502D5EC
:101E8000E068002891D06868217C20F0FE4040EA9C
:101E900001606860C1480068FFF716FC002800D1A7
:101EA00020E076E1FFF7F2FB801B0228B8D8286813
:101EB0004005F7D56868217C20F0FE4040EA0160CB
:101EC00068600FE020F480702860FFF7DFFB0646B3
:101ED00005E000BFFFF7DAFB801B0228A0D82868C6
:101EE0004005F7D42078000729D560690028D5F887
:101EF000940013D040F00100C5F89400FFF7C6FB32
:101F0000064606E090E000BFFFF7C0FB801B0228FA
:101F100086D8D5F894008007F6D510E020F00100AF
:101F2000C5F89400FFF7B2FB064604E0FFF7AEFBEE
:101F3000801B022878D8D5F894008007F6D4207842
:101F4000400761D5A86D0026C00008D4A86D40F0F8
:101F50008050A865A86D012600F080500090904840
:101F60000168C90511D40168804641F4807101609F
:101F7000FFF78CFB074604E0FFF788FBC01B022835
:101F800052D8D8F80000C005F6D5A068012815D0B1
:101F90000528D5F8900016D020F00100C5F8900073
:101FA000D5F8900020F00400C5F89000A06841F238
:101FB0008838B8B1FFF76AFB07460EE0D5F8900005
:101FC00040F00100F0E740F00400C5F89000F5E7AC
:101FD000FFF75CFBC11B414526D8D5F89000800770
:101FE000F6D50CE0FFF752FB074604E0FFF74EFB87
:101FF000C11B414518D8D5F890008007F6D41EB112
:10200000A86D20F08050A8652078800629D5A069A9
:102010000028D5F8980013D040F00100C5F89800CA
:10202000FFF734FB064606E077E000BFFFF72EFB24
:10203000801B022877D8D5F898008007F6D510E0E5
:1020400020F00100C5F89800FFF720FB064604E0E9
:10205000FFF71CFB801B022865D8D5F89800800785
:10206000F6D4E069F0B3A968C1F38101032961D016
:102070000228286820F0807028600BD0E86820F0E3
:102080000300E860E86847490840E860FFF7FEFAA7
:1020900004464BE0FFF7FAFA064604E0FFF7F6FACB
:1020A000801B02283FD828688001F7D4F4E9080192
:1020B0006FF00F0202EB01110843218A5204490814
:1020C00002EB4151A26841EA02210843217D4FF011
:1020D0007E42490802EB41610843217B40EAC1602E
:1020E000E96800E062E0304A11400843E86028688F
:1020F00040F080702860E86840F08070E860FFF78A
:10210000C5FA044605E000BFFFF7C0FA001B02282D
:1021100009D828688001F7D548E004E0FFF7B6FA4F
:10212000001B022802D90320BDE8F883286880013B
:10213000F4D43BE00128F7D0E868226A00F00301FC
:10214000914226D1616A00F0F002090110399142F2
:102150001FD1A26A00F4FE41B1EB022F19D194F80D
:102160002C2000F07841B1EBC26F12D1218E00F427
:10217000C00249084905A1F50011914209D194F81E
:10218000341000F0C06049084906A1F10071814295
:102190000CD00120C8E70000001002406C000020B5
:1021A00000700040FFFFEEFE0C809F010020BBE7A7
:1021B00010B5401EB0F1807F01D3012010BD4FF05B
:1021C000E02460610F21601702F088FB0020A0610D
:1021D00007202061002010BD70477047704770478E
:1021E00070477047F0B590F83C20012A3AD001259D
:1021F00080F83C50022280F83D2003685A689C68B1
:10220000194E1A4FB34201D0BB4204D122F4700CD4
:102210004A6842EA0C02DFF858C002EA0C02D1F820
:1022200000C04CEA020CC3F804C00268B2420DD0F0
:10223000B2F1804F0AD00F4B9A4207D00E4B9A4210
:1022400004D0BA4202D00D4B9A4204D1896824F0DE
:1022500080031943916080F83D50002180F83C10C4
:102260000846F0BD0220F0BD002C014000340140C2
:102270008FFFFFFD000400400008004000400140C7
:10228000704710B5040003D094F83D0010B107E08A
:10229000012010BD002084F83C00204600F022F808
:1022A000022084F83D00211D206801F07BFD012003
:1022B00084F8480084F83E0084F83F0084F8400029
:1022C00084F8410084F8420084F8430084F8440014
:1022D00084F8450084F8460084F8470084F83D00FF
:1022E000002010BD30B587B0044614216846FDF7C4
:1022F000C9FF236800222F4902244FF09040B3F118
:10230000804F25D02C4DAB4242D18B6D43F0020360
:102310008B658B6D03F002030593CB6C43F00103D7
:10232000CB64C96C01F001010591C0210091CDE998
:102330000142CDE903246946FFF7BAF800221146AD
:102340001D20FFF709FA1D20FFF7F8F907B030BD8F
:102350008B6D43F001038B658B6D03F001030593D7
:10236000CB6C43F00103CB64C96C009401F0010114
:102370000591CDE901420121CDE903216946FFF72D
:1023800097F8002211461C20FFF7E6F91C20DBE736
:102390000A488342DAD1886D40F010008865886D64
:1023A000002200F01000059011463620FFF7D4F906
:1023B0003620C9E700100240000400400010004031
:1023C00090F83D10012901D001207047022180F8CA
:1023D0003D100168CA6842F00102CA6000681049F5
:1023E00088420ED0B0F1804F0BD00E49884208D001
:1023F0000D49884205D00D49884202D00C498842D7
:1024000007D181680B4A1140062906D0B1F5803FFB
:1024100003D0016841F00101016000207047000015
:10242000002C01400004004000080040003401403E
:10243000004001400700010070B5044690F83C00E0
:10244000012814D0012584F83C50022084F83D0076
:1024500022689068344B184020F47F4090600868F0
:10246000702827D010DC10F00F0F03D04AE04FF097
:10247000020070BD4FEA2012072A43D2DFE802F0C3
:102480005050505048313900284BC21A984247D01A
:1024900009DCB0F5805F35D0B0F5005F15D0B0F144
:1024A000101F2FD13CE0102A3AD0202A38D0502AD1
:1024B00028D135E0CB68D1E90121206801F0D7FCB3
:1024C0002068816841F0770109E0CB68D1E90121FA
:1024D000206801F0CCFC2068816841F48041816073
:1024E00010E0CA684968206801F0D6FC50212068D5
:1024F00006E0CA684968206801F016FD602120687E
:1025000001F0C0FC84F83D50002084F83C0070BD10
:10251000CA684968206801F0BFFC40212068EFE7E5
:10252000226801461046EBE788FFCEFF200010002E
:102530002DE9F04104462DED048B012600270068AB
:102540006C4DB0F1804F1CD1287860B101287DD14D
:102550002F700421204600F035FBA860696888428E
:1025600008D9401A08E02E700421204600F02AFB0A
:10257000686006E0081AC0435F49E860B1FBF0F00C
:1025800028625E49206888427DD1207F4FF0020892
:102590009FED5B9B012850D1687870B101281DD058
:1025A000022870D16F700021204600F00BFB68619B
:1025B000296988422AD9401A2AE06E7000212046F3
:1025C00000F000FB28612068016A21F00A01016225
:1025D0002068016A41F0020101622EE085F8018065
:1025E0000021204600F0EEFA686121680A6A22F0B4
:1025F0000A020A6221680A6A0A622969884201D9C4
:10260000401A01E0081AC043686216E0081AC04385
:10261000A862962811D2FDF7DDFF41EC180B686A1D
:10262000FDF7D8FF53EC192BFDF7F3FE53EC182BF5
:10263000FDF761FFFEF71EF8E862207F022822D135
:10264000A87880B1012822D0022800E01BE01AD12E
:10265000AF700421204600F0B5FAE861A96988420C
:102660002DD9401A2DE0AE700421204600F0AAFAC0
:10267000A8612068016A21F0A00101622068016A56
:1026800041F020010162BDEC048BBDE8F08185F8CA
:1026900002800421204600F095FAE86121680A6A68
:1026A00022F0A0020A6221680A6A0A62A9698842C5
:1026B00001D9401A01E0081AC0432863E3E7081A69
:1026C000C04340F2DC5168638842DCD2FDF782FFF0
:1026D00041EC180B286BFDF77DFF53EC192BFDF730
:1026E00098FE53EC182BFDF706FFFDF7C3FFA86318
:1026F000C9E700003000002040420F000004004005
:1027000000000000000059402DE9F041054690F816
:102710003C000C46012836D0012085F83C008AB3E5
:10272000042A42D02868082A51D0D4E90023E1685D
:10273000066A26F480560662C669076A26F4407661
:1027400046EA03234FF6FF7606EA013123F470438D
:1027500019434FF4204627F4204306EA02321A4375
:10276000C16102622868C16921F44061C1612868C1
:10277000C169A26841EA0221C161002085F83C00DC
:10278000BDE8F08101E00220FAE7D4E90012E36835
:10279000286801F093FB2868816921F00C018161B0
:1027A00028688169A26811430FE0D4E90012E36848
:1027B000286801F0CBFB2868816921F440618161C0
:1027C00028688169A26841EA02218161D5E7D4E9DC
:1027D0000027267B016A21F480710162C169036AC6
:1027E00021F00301394321F0F00731074FF420664F
:1027F00047EA116123F4206306EA02221A43C16109
:1028000002622868C16921F00C01C1612868C169B0
:10281000A2681143B0E710B5040003D094F83D005E
:1028200010B107E0012010BD002084F83C002046D4
:1028300000F022F8022084F83D00211D206801F0FC
:10284000B1FA012084F8480084F83E0084F83F0083
:1028500084F8400084F8410084F8420084F8430082
:1028600084F8440084F8450084F8460084F8470062
:1028700084F83D00002010BD7047000010B50446EC
:1028800079B1042912D0082915D00C2918D01029A3
:1028900019D094F8430000BF94F84720012817D1BD
:1028A00014E094F83E0094F84420F7E794F83F00D1
:1028B00094F84520F2E794F8400094F84620EDE7BC
:1028C00094F84100E8E794F84200E5E7012A01D0D6
:1028D000012010BD022071B1042915D008291CD097
:1028E0000C2948D0102949D084F8430084F84700C7
:1028F0000C291BD145E084F83E0084F84400206890
:10290000C26842F0020210E084F83F0084F84500FB
:102910002068C26842F0040207E084F8400084F8AE
:1029200046002068C26842F00802C26001222068A6
:1029300001F090FA1549206888420ED0B0F1804F1E
:102940000BD01349884208D01249884205D0124959
:10295000884202D01149884207D18168104A11404B
:10296000062906D0B1F5803F03D0016841F001018E
:102970000160002010BD84F84100B7E784F84200F0
:10298000B4E72068C26842F01002CEE7002C014094
:1029900000040040000800400034014000400140B5
:1029A0000700010070B50446006801694FF000059A
:1029B000C943890715D4C168C943890711D4E91EE1
:1029C000016101202077206880698007204602D0BD
:1029D000FFF7AEFD04E000F0E3F8204600F0E1F878
:1029E000257720680169C943490717D4C168C943DD
:1029F000490713D46FF00401016102202077206899
:102A0000806910F4407F204602D0FFF791FD04E07A
:102A100000F0C6F8204600F0C4F825772068016968
:102A2000C943090716D4C168C943090712D46FF016
:102A300008010161042020772068C06980072046D2
:102A400002D0FFF775FD04E000F0AAF8204600F080
:102A5000A8F8257720680169C943C90617D4C16859
:102A6000C943C90613D46FF0100101610820207713
:102A70002068C06910F4407F204602D0FFF758FD5F
:102A800004E000F08DF8204600F08BF825772068F0
:102A90000169C943C90708D1C168C943C90704D13D
:102AA000891E0161204600F07DF820680169C94354
:102AB000090609D4C168C943090605D46FF080012D
:102AC00001612046FFF789FB20680169C943C905F8
:102AD00009D4C168C943090605D46FF48071016146
:102AE0002046FFF779FB20680169C943490609D4EC
:102AF000C168C943490605D46FF040010161204611
:102B000000F075F820680169C943890609D4C168D5
:102B1000C943890605D46FF0200101612046FFF703
:102B20005DFB20680169C943C90209D4C168C94372
:102B3000C90205D46FF4801101612046FFF750FBF4
:102B400020680169C943890209D4C168C94389025F
:102B500005D46FF4001101612046FFF740FB2068A7
:102B60000169C943490209D4C168C943490205D46E
:102B70006FF4800101612046FFF733FB2068016993
:102B8000C94309020BD4C168C943090207D46FF4D1
:102B9000000101612046BDE87040FFF771BB70BDC8
:102BA0007047704700680549884206D1044881880B
:102BB000491C8180C188491CC180704700100040B9
:102BC0007C0000200246002041B1042909D00829D8
:102BD0000AD00C2901D11068006C70471068406B56
:102BE00070471068806B70471068C06B7047704703
:102BF00090F88010012918D0012180F8801024213C
:102C0000C0F8841050F8641B0A680B6823F00103B5
:102C10000B6022F000510022026050F8643C196001
:102C200020210162027710467047022070477047EA
:102C3000704770B5044690F8800001281DD001202F
:102C400084F880002420C4F88400206805680268A5
:102C500022F0010202602068826822F060620A436A
:102C60008260204601F08EF9206805602020C4F8BB
:102C70008400002084F8800070BD022070BD70B513
:102C8000044690F8800001281DD0012084F88000BF
:102C90002420C4F8840020680568026822F001023C
:102CA00002602068826822F060420A438260204607
:102CB00001F068F9206805602020C4F88400002035
:102CC00084F8800070BD022070BD70477047704767
:102CD0002DE9F04103680446D86919689A6840F6FE
:102CE0000F0528424FF0000509D186067ED501F078
:102CF000200602F080573E4378D0216FFFE0924ECD
:102D0000924F16400F40374370D0C70709D0CF0508
:102D100007D501271F62D4F88C3043F00103C4F8B3
:102D20008C3083070AD5D30708D0276802233B627B
:102D3000D4F88C3043F00403C4F88C3043070AD530
:102D4000D30708D0276804233B62D4F88C3043F0C3
:102D50000203C4F88C3003070CD501F02003334381
:102D600008D0266808233362D4F88C3043F0080377
:102D7000C4F88C3003050BD54B0109D526684FF4F8
:102D800000633362D4F88C3043F02003C4F88C30F5
:102D9000D4F88C30002B34D0800609D501F0200007
:102DA00002F08051084303D0216F09B120468847C3
:102DB000D4F88C0021688968490602D410F0280FE5
:102DC00021D0204601F09EF920688168490615D57A
:102DD000816821F040018160E06F78B15C498163D6
:102DE000E06FFEF716FB00280BD000E011E0E06F6B
:102DF000816B00E02046BDE8F04108472046FFF720
:102E000066FFBDE8F0812046FFF761FFC4F88C50F3
:102E1000F7E7E76E2026012F5CD1C7065AD5CF060B
:102E200058D5102018622068816849062FD5E26FB6
:102E3000116849680904090CE3D0B4F85C308B428E
:102E4000DFD9A4F85E1011680968890618D40168F2
:102E500021F4807101602068816821F001018160A6
:102E60002068816821F040018160C4F88860E566CF
:102E70002068016821F010010160E06FFEF794FA0C
:102E8000B4F85C00B4F85E10401A81B21EE0B4F8E9
:102E90005C10B4F85E20891AB4F85E2089B2002A6A
:102EA000AFD00029ADD0026822F490720260206891
:102EB0008268254BDB431A408260C4F88860E5666F
:102EC00025672068026822F0100202602046FFF7A2
:102ED000AEFE96E7C70209D5570207D54FF480101A
:102EE00018622046BDE8F041FFF7F0BE07060AD59C
:102EF00001F0800702F40002174304D0616F00293B
:102F00007FF478AF7DE742060CD54A060AD51968EA
:102F1000204621F040011960C4F88460656700F024
:102F20001FF96EE7020206D54A0004D52046BDE827
:102F3000F041FFF7CABEC001CBD50029C9DA20464F
:102F4000BDE8F041FFF774BE01000010200100044D
:102F5000F140000810B5040003D0D4F8840010B18B
:102F600007E0012010BD002084F88000204600F01A
:102F700027F82420C4F884002068016821F00101AA
:102F80000160204601F096FA0128EBD0A06A10B14A
:102F9000204601F019F82068416821F49041416011
:102FA0002068816821F02A0181602068016841F071
:102FB000010101602046BDE8104001F069B8000041
:102FC00010B586B0044614216846FDF75BF9174931
:102FD0002068884227D11648016E41F4804101667D
:102FE000016E01F480410591C16C41F00101C164A1
:102FF000C06C694600F0010005904FF4C06000907D
:1030000002200190002002900390072004904FF0CE
:103010009040FEF74DFA002211462520FEF79CFB5A
:103020002520FEF78BFB06B010BD000000380140E4
:103030000010024010B4D0F88830202B1BD1B9B159
:10304000B2B190F88030012B15D0012380F8803088
:103050000023C366094C0368A34206D05C682402BF
:1030600003D51C6844F080641C6010BC01F05CBB9C
:10307000012010BC70470220FBE7000000800040E8
:103080000549064B48788A781A54401C487001223A
:10309000891C0348FFF7CEBF7C000020D00300202E
:1030A000400300202DE9F8430446D0F884001F4671
:1030B00016460D46202851D1DDB1D6B194F88000D6
:1030C00001284BD0012084F880004FF00008C4F89C
:1030D0008C802120C4F884001834FEF7D7FAA68724
:1030E0008146E68754F8100C183CB0F5805F03D099
:1030F00004E00120BDE8F883206920B12E460025B8
:1031000084F8808010E00026FAE78021204601F054
:1031100077FBB8B9C6B116F8010B21688862B4F81C
:103120005600401EA4F85600B4F856004B464FF027
:10313000000200970028E8D14FF04001204601F03E
:103140005FFB30B10320D5E735F8020BC0F3080070
:10315000E3E72020C4F884000020CBE70220C9E781
:103160007047FEE770B5184D01212846FEF784FA36
:1031700000B10120154C022120702846FEF77CFA90
:1031800000B10120607004212846FEF775FA00B1F5
:103190000120A07001214FF09040FEF76DFA00B1C0
:1031A0000120E070217862781140A278024007483F
:1031B0001142A0F1080001D0002103E00178FF29AD
:1031C00001D2491C017070BD000400488400002039
:1031D00000B585B014216846FDF754F84FF6FF702E
:1031E000009000200321CDE90201019069460248C8
:1031F000FEF75EF905B000BD0008004800B585B0D7
:1032000014216846FDF73EF84FF6FF70009001204C
:103210000190032003900020029069460248FEF7C7
:1032200047F905B000BD00000008004870B5002453
:1032300006462146204600F003F900F041F94FF41C
:103240009635304600F010F9641CAC42F9D370BDDD
:1032500030B587B014216846FDF714F81E48C16CDC
:1032600041F00401C164C16C01F004010591C16C1D
:1032700041F00101C164C16C01F001010591C16C13
:1032800041F00201C164C06C012500F0020005900C
:103290004FF44870CDE90005002403946946029478
:1032A0000E48FEF705F9280203940090CDE9015479
:1032B0004FF0904469462046FEF7FAF8FFF79EFF6C
:1032C000A06940F48070A06104481830016841F49E
:1032D0000871016007B030BD0010024000040048D2
:1032E000203AD2B2034B02EB420203EB021200F08F
:1032F00019B8000030590008F0B50E460746002501
:1033000040F23F1407E021463846FFF7E9FF103C42
:103310006D1CA4B2761C3278002A01D0142DF2D391
:10332000F0BD00002DE9F04791468A46002604468C
:1033300000F086F8DFF84080012700BF00F0C0F8F9
:103340005FF0000539F8160007FA05F1084240461B
:1033500001D1408800E0008800F086F86D1C102D37
:10336000F0D3641CE4B25146204600F069F8761CA4
:10337000182EE3D3BDE8F0878800002010B5FFF7D2
:1033800067FF002000F014F8084CA080A088A0F58A
:103390000241303906D000F06FFB002000F008F841
:1033A000A08010BD00F0DFFAF7E7000088000020E1
:1033B00070B51D490A6842F400720A600A6842F456
:1033C00080720A60184C103C226842F02002226091
:1033D000164A1060086840F02000086000BF00BF77
:1033E00000BF206840F020002060206840F480701A
:1033F0002060FFF7EDFE4FF09041886A40F4807046
:10340000886200BF00BF00BF0848001F006885B287
:10341000886940F480708861FFF7F0FE206840F40E
:1034200000702060284670BD280400481408004839
:1034300001B5BDF800000149488008BD88000020A2
:1034400010B50C460146202000F068F82146BDE882
:103450001040212000F062B801B5BDF8000001491C
:10346000088008BD88000020134A116841F40071EB
:103470001160114910390B6843F480730B600B68BD
:1034800043F020030B600D4B1860106840F02000E3
:10349000106000BF00BF00BF086840F02000086057
:1034A000086840F48070086000BF00BF00BF086873
:1034B00040F4007008607047280400481408004871
:1034C0001449086840F400700860086840F480708F
:1034D000086010481038026842F0200202600E4B6B
:1034E00022221A600A6842F020020A6000BF00BF70
:1034F00000BF016841F020010160016841F4807162
:10350000016000BF00BF00BF016841F400710160AD
:10351000704700002804004814080048184B10B5F4
:103520001A6842F400721A601A6842F480721A60D3
:10353000134A103A146844F020041460114C2060BF
:10354000186840F02000186000BF00BF00BF10687E
:1035500040F020001060106840F48070106021601E
:10356000186840F02000186000BF00BF00BF10685E
:1035700040F020001060106840F48070106010BDB2
:10358000280400481408004870B50D4D0446012277
:103590004FF6FF712846FEF774F8210200222846F4
:1035A000FEF76FF8074C012204212046FEF769F868
:1035B0002046BDE8704000220421FEF762B80000FA
:1035C00000080048000C004800EB8100006E00F08D
:1035D000F84070478068C0F3C00070478068C0F34F
:1035E00080007047C06810F4406F01D00020704721
:1035F00001207047042303EAD15310B518444369EE
:10360000C1F3045107248C40A3438A401343436110
:1036100010BD00EB8100016E21F0004111430166F5
:103620007047000030B589B020216846FCF72AFEBB
:1036300019481849002401604902C0E90114C46016
:1036400004250461C0E9054504774477012101623E
:1036500080F82440C462046380F83840C46380F872
:103660004040FDF7F1FC08B1FDF776F90B480090FA
:103670000620CDE901047F200594CDE903056946C4
:103680000548FDF793F9002801D0FDF765F909B069
:1036900030BD000000010050F00100200000524742
:1036A000F0B587B014216846FCF7ECFD2D48C16CDD
:1036B00041F00401C164C16C01F004010591C16CC9
:1036C00041F02001C164C16C01F020010591C16C81
:1036D00041F00101C164C16C01F001010591C16CAF
:1036E00041F00201C164C16C01F002010591C16C9D
:1036F00041F00801C164C06C1B4E00F008004FF49B
:103700007F440590002221463046FDF7BAFF174F4F
:10371000002204213846FDF7B4FF0125CDE900451C
:1037200000240294694630460394FDF7C1FECDE9BA
:10373000005469464FF090400295FDF7B9FE07200E
:103740008DE8310069460A48FDF7B2FE042000907A
:10375000CDE90154694638460394FDF7A9FE07B048
:10376000F0BD00000010024000080048000C0048B6
:103770000004004810B58CB000240594214804943E
:103780000694079408940A9409940094019402946E
:103790004FF08041039401604F21C0E90114611E84
:1037A000C0E903148461FEF76CFD08B1FDF7D4F89D
:1037B0004FF48050049004A91248FEF73DFE08B172
:1037C000FDF7CAF80F48FFF726F808B1FDF7C4F86F
:1037D000089408A90B480A94FEF704FD08B1FDF708
:1037E000BBF80120CDE90040029404226946054857
:1037F0000394FEF789FF002801D0FDF7ADF80CB067
:1038000010BD00005C02002010B58CB000240594AF
:10381000264804940694079408940A940994009402
:10382000019402942049039401604F21C0E90114DE
:103830004FF6FF71C0E903148461FEF722FD08B161
:10384000FDF78AF84FF48050049004A91748FEF75A
:10385000F3FD08B1FDF780F81448FEF7DCFF08B16E
:10386000FDF77AF8089408A910480A94FEF7BAFC04
:1038700008B1FDF771F80120CDE900400294002263
:1038800069460A480394FEF73FFF08B1FDF764F864
:10389000042269460548FEF737FF002801D0FDF7EE
:1038A0005BF80CB010BD000000040040A80200202E
:1038B0003EB500240F48009401940D490294016024
:1038C0004F21C0E9011440F2E7318461C160FEF785
:1038D000D8FC08B1FDF740F8009469460548029409
:1038E000FEF780FC002801D0FDF736F83EBD000051
:1038F00000100040F4020020184810B5164901607D
:103900004FF416514160002181600C22C160C0E972
:1039100004128161C161016241628162FFF71AFB99
:1039200008B1FDF719F800210C48FFF7A8F908B114
:10393000FDF712F800210948FFF77BF908B1FDF700
:103940000BF80648FFF754F9002803D0BDE81040F3
:10395000FDF702B810BD0000003801404003002010
:10396000FEE7FEE7704730B501210020FFF7D6FDE6
:103970004FF47A70FCF7E2FF00210120FFF7CEFD43
:1039800041F290711020FFF7C9FD4FF41C516020E7
:10399000FFF7C4FD01216120FFF7C0FD0221462091
:1039A000FFF7BCFD48F210011320FFF7B7FD48F206
:1039B000FE011220FFF7B2FD4FF4A0610220FFF7D5
:1039C000ADFD41F230010320FFF7A8FD40F20334C2
:1039D00021463020FFF7A2FD21463120FFF79EFD52
:1039E00021463220FFF79AFDE51E29463320FFF7D6
:1039F00095FD03213420FFF791FD21463520FFF787
:103A00008DFD14213620FFF789FD21463720FFF771
:103A100085FD21463820FFF781FD21463920FFF73B
:103A20007DFD29463A20FFF779FD03213B20FFF772
:103A300075FD21463C20FFF771FD4FF4A0513D205C
:103A4000FFF76CFD4FF400719220FFF767FD2146F0
:103A50009320FFF763FD40F60D019020FFF75EFD18
:103A600041F218010320FFF759FDBDE8304040F254
:103A700073110720FFF752BD10B543F20801E32090
:103A8000FFF74CFD1221E720FFF748FD41F23121FD
:103A9000EF20FFF743FD00210120FFF73FFD4FF42A
:103AA000E0610220FFF73AFD41F230010320FFF709
:103AB00035FD00210420FFF731FD40F207210820E9
:103AC000FFF72CFD00210920FFF728FD00210A2027
:103AD000FFF724FD00210C20FFF720FD00210D2021
:103AE000FFF71CFD00210F20FFF718FD002110201B
:103AF000FFF714FD07211120FFF710FD0021122010
:103B0000FFF70CFD00211320FFF708FDC820FDF78B
:103B1000BDFC41F290611020FFF700FD40F227212B
:103B20001120FFF7FBFC3220FDF7B0FC1D21122015
:103B3000FFF7F4FC3220FDF7A9FC4FF400611320DD
:103B4000FFF7ECFC14212920FFF7E8FC0B212B20C8
:103B5000FFF7E4FC3220FDF799FC00212020FFF75D
:103B6000DDFC00212120FFF7D9FC07213020FFF7E1
:103B7000D5FC40F207713120FFF7D0FC062132203E
:103B8000FFF7CCFC40F204713520FFF7C7FC41F68B
:103B900004713620FFF7C2FC04213720FFF7BEFC7A
:103BA00000213820FFF7BAFC40F206713920FFF7F8
:103BB000B5FC40F201713C20FFF7B0FC0F213D2025
:103BC000FFF7ACFC00215020FFF7A8FCEF215120AB
:103BD000FFF7A4FC00215220FFF7A0FC40F23F11A8
:103BE0005320FFF79BFC4FF41C516020FFF796FC1D
:103BF00001216120FFF792FC00216A20FFF78EFC73
:103C000000218020FFF78AFC00218120FFF786FC3D
:103C100000218220FFF782FC00218320FFF77EFC39
:103C200000218420FFF77AFC00218520FFF776FC35
:103C300010219020FFF772FC00219220FFF76EFC0C
:103C400003219320FFF76AFC4FF488719520FFF75A
:103C500065FC00219720FFF761FC00219820FFF709
:103C60005DFC41F218010320FFF758FCBDE810404D
:103C700040F273110720FFF751BC000010B5114C42
:103C8000207800281DD0022801D00FA105E010A146
:103C90001048FCF709FB60B90FA1104800F00AFEBC
:103CA0000E48FCF7FAFA82B232230C490C48FFF7AF
:103CB000F9F900202070BDE8104032210548FCF7DA
:103CC000E1BA10BD7D0000206572726F720A0000BB
:103CD00061620000D003002068690A00BC01002076
:103CE000400300207047FDF7D7BC10B5A4B03821C1
:103CF0006846FCF7C7FA14211FA8FCF7C3FA442151
:103D00000EA8FCF7BFFA4FF40070FDF757FD012035
:103D100000900004019002200324CDE9070414213F
:103D2000CDE90A100C900D9009946846FEF73AF818
:103D300008B172B6FEE70F20CDE91F0400242194DC
:103D4000229402211FA82394FDF7E2FE08B172B667
:103D5000FEE748F20100CDE90E0440071D900EA8D1
:103D6000FDF792FD002801D072B6FEE724B010BD29
:103D70000248016841F470010160704788ED00E07D
:103D80000148FEF70FBE00005C0200200148FEF76C
:103D900009BE0000A80200200148FEF703BE000093
:103DA000F40200202DE9F0430268234B234D244EFA
:103DB000244C4FF08049984207D0484505D0A8428E
:103DC00003D0B04201D0A04203D122F070074A686C
:103DD0003A431D4FDFF874C0DFF8748098420DD06D
:103DE00048450BD0A84209D0B04207D0A04205D028
:103DF000B84203D0604501D0404503D122F440755C
:103E0000CA682A434D6922F080022A4302608A6808
:103E1000C2620A688262984207D0A04205D0B842C6
:103E200003D0604501D0404501D1096901630121FA
:103E30004161BDE8F0830000002C01400004004017
:103E400000080040003401400040014000440140AF
:103E50000048014010B501F01F030121046A994098
:103E60008C430462016A9A401143016210BD10B58F
:103E7000846842EA032224F47F440A432243826096
:103E800010BD00008268034B1A400A4342F007014C
:103E9000816070478FFFCFFF10B5036A046A24F07A
:103EA00001040462846924F0F00444EA021423F05B
:103EB0000A020A438461026210BD000070B5046A00
:103EC00024F0010404628469056A124EB0420ED0E7
:103ED000B0F1804F0BD0104EB04208D00F4EB04220
:103EE00005D00F4EB04202D00E4EB04203D124F0A6
:103EF0000304144301E044F001041A0724F0F00421
:103F000044EA126225F00A0301F00A0119438261B2
:103F1000016270BD002C0140000400400008004018
:103F2000003401400040014010B5036A23F0100343
:103F300003628369046A23F4704343EA023224F083
:103F4000A00343EA01118261016210BD30B5046A29
:103F500024F0100404628469056A24F4407444EA7D
:103F6000022222F470444FF6FF7202EA0332224327
:103F7000A02425F0A00304EA011119438261016223
:103F800030BD000030B5416EB9B1026891689268E9
:103F9000C1F342610B4B520F9C5CE50003F1080436
:103FA000A25CB5FBF2F2A0F86A205A5C615CD20018
:103FB000B2FBF1F1A0F8681030BD0121A0F86A1041
:103FC000F8E700000859000890F82810C90706D043
:103FD00001684A68C36A22F400321A434A6090F8C2
:103FE0002810890706D501684A68036B22F48032DD
:103FF0001A434A6090F82810490706D501684A68B4
:10400000436B22F480221A434A6090F82810090773
:1040100006D501684A68836B22F400421A434A605D
:1040200090F82810C90606D501688A68C36B22F487
:1040300080521A438A6090F82810890606D50168D4
:104040008A68036C22F400521A438A6090F82810A0
:10405000490611D501684A68436C22F480121A435C
:104060004A60416CB1F5801F06D101684A68836CD3
:1040700022F4C0021A434A6090F82810090606D5B7
:1040800001684A68C06C22F4002202434A6070470B
:10409000F8B500260446C0F88C60FDF7F7FA05462F
:1040A000206800686FF07E47000708D52B46002285
:1040B0004FF400112046009700F0A2FB60B9206881
:1040C000006840070AD52B4600224FF480012046A5
:1040D000009700F095FB08B10320F8BD2020C4F83C
:1040E0008400C4F8880044F86C6F00202675F8BD81
:1040F00010B5806A0021A0F85E10A0F85610FEF7F7
:10410000E6FD10BD01680A6822F490720A60016839
:104110008A68094B1A408A60C16E012904D101687E
:104120000A6822F010020A602021C0F888100021DD
:10413000C166016770470000FEFFFFEF70B5B0F881
:104140006010D0F8882004460068222A04D08169D3
:1041500041F00801816170BD406AA26D0840108085
:10416000A06D801CA065B4F85E00401EA4F85E003F
:10417000B4F85E000028EED12068016821F4907147
:1041800001602068816821F0010181602020C4F86D
:10419000880000252567E06E012804D02046FEF740
:1041A0006FFFE56670BD2068016821F010010160B5
:1041B000B4F85C102046FEF73AFDF2E72DE9F0472F
:1041C0000446B0F860600068C569D0F800A0D0F877
:1041D0000880D4F88810222905D0816941F00801AF
:1041E0008161BDE8F087B4F868704FF000095BE0CA
:1041F0002068406AA16D30400880A06D801CA065D9
:10420000B4F85E00401EA4F85E002068C569690726
:1042100030D0E9070AD05FEACA5107D5012101620F
:10422000D4F88C0040F00100C4F88C00A8070BD52E
:104230005FEAC87008D0216802200862D4F88C00B8
:1042400040F00400C4F88C0068070BD55FEAC87022
:1042500008D0216804200862D4F88C0040F00200E5
:10426000C4F88C00D4F88C0020B12046FEF72FFD56
:10427000C4F88C90B4F85E00B0B92068016821F4ED
:104280008071016020688168194A11408160202096
:10429000C4F88800C4F87090E06E01281CD0204655
:1042A000FEF7EEFEC4F86C900FB1A806A0D4B4F8E7
:1042B0005E00002895D0B4F86810814291D920683A
:1042C000816821F0805181600A4820672068016878
:1042D00041F02001016084E72068016821F01001AD
:1042E0000160B4F85C102046FEF7A1FCDAE700009C
:1042F000FEFFFFEF3D41000870B5B0F86010D0F848
:10430000882004460068222A04D0816941F008010F
:10431000816170BD406A0840A16D0870A06D401CAD
:10432000A065B4F85E00401EA4F85E00B4F85E001C
:104330000028EED12068016821F4907101602068A6
:10434000816821F0010181602020C4F888000025E7
:104350002567E06E012804D02046FEF791FEE56651
:1043600070BD2068016821F010010160B4F85C1094
:104370002046FEF75CFCF2E72DE9F0470446B0F872
:1043800060600068C569D0F800A0D0F80880D4F853
:104390008810222905D0816941F008018161BDE8BA
:1043A000F087B4F868704FF000095BE02068406A5D
:1043B000A16D30400870A06D401CA065B4F85E008F
:1043C000401EA4F85E002068C569690730D0E9077F
:1043D0000AD05FEACA5107D501210162D4F88C00E6
:1043E00040F00100C4F88C00A8070BD55FEAC87044
:1043F00008D0216802200862D4F88C0040F0040044
:10440000C4F88C0068070BD55FEAC87008D0216833
:1044100004200862D4F88C0040F00200C4F88C003C
:10442000D4F88C0020B12046FEF751FCC4F88C90E3
:10443000B4F85E00B0B92068016821F480710160B1
:1044400020688168194A114081602020C4F88800E2
:10445000C4F87090E06E01281CD02046FEF710FED4
:10446000C4F86C900FB1A806A0D4B4F85E00002880
:1044700095D0B4F86810814291D92068816821F004
:10448000805181600A4820672068016841F020015E
:10449000016084E72068016821F010010160B4F830
:1044A0005C102046FEF7C3FBDAE70000FEFFFFEFDB
:1044B000F94200082DE9F04104460168806822694C
:1044C000E3691043626900251A431043DFF82CC2E8
:1044D0000A688B4B1A4002430A6020684168E26810
:1044E00021F44051114341602168A069614501D028
:1044F000226A10438A68834B1A4002438A6020680C
:10450000C16A626A21F00F011143C1627E492368CA
:104510007E488B420DD1D0F8880010F0030006D001
:10452000012855D0022842D003283FD152E0012073
:104530003DE077498B420BD1D0F8880010F00C0099
:1045400035D0042833D0082840D00C282ED141E0A3
:1045500070498B420BD1D0F8880010F0300026D083
:10456000102835D0202831D030281FD132E06A49B8
:104570008B420BD1D0F8880010F0C00017D0402833
:1045800026D0802822D0C02810D123E063450DD149
:10459000D0F8880010F4406009D0B0F5806F17D0D3
:1045A000B0F5006F12D0B0F5406F13D010205B4A09
:1045B0005B4F00264FF40041634539D160B10228BA
:1045C0000DD004280DD0082831D10EE00220EEE7EE
:1045D0000420ECE70820EAE7FDF788FB03E011463A
:1045E00003E0FDF7A7FB01007DD0606A37F81020DB
:1045F0006768B1FBF2F007EB470383426CD8B0EB7E
:10460000073F69D8002308461946FBF703FE090255
:1046100041EA106102027808101871413A460023FD
:10462000FBF7F8FD3F4AA0F54071914259D953E09C
:10463000E3694FF6EF788B422DD109284CD2DFE8A1
:1046400000F005080D4B274B4B4B0E00FDF74EFBC2
:1046500001E0FDF75DFB010001D144E01146606A15
:1046600037F81000B1FBF0F04100606801EB500139
:10467000B1FBF0F080B2A0F1100141452CD84FF60B
:10468000F0710140C0F3420001432068C1602AE09C
:10469000FDF750FBDFE709281ED2DFE800F0050830
:1046A0000D1D1F1D1D1D0E00FDF720FB01E0FDF778
:1046B0002FFB010001D116E01146606A37F81000A7
:1046C000B1FBF0F1606801EB5001B1FBF0F080B29A
:1046D000A0F11001414504D9012504E0FDF72AFBB2
:1046E000E7E72168C8600120A4F86A0024F8680F91
:1046F0002846A660E660BDE8F0810000008000402A
:10470000F369FFCFFFF4FF110038014000100240B1
:104710000044004000480040004C00400024F400E9
:10472000F0580008FFFC0F0070B58165A0F85C2010
:10473000A0F85E200021016783684FF48056FF24B3
:10474000B34204D10369D3B940F2FF131DE07F25C2
:104750009BB1B3F1805F15D0A0F86010C0F88C1049
:104760002223C0F8883003689C6844F001049C60F0
:10477000436EB3F1005F0ED027E0036943B9A0F8A0
:104780006040EBE703691BB13F23A0F86030E5E729
:10479000A0F86050E2E7B0F86830934215D882681C
:1047A000B24201D1026972B1114A026780F88010E9
:1047B00001680A6842F480720A600068816841F00A
:1047C000805181600FE00B4AEFE78268B24201D16D
:1047D000026952B1084A026780F8801000680168D7
:1047E00041F490710160002070BD044AF3E70000BD
:1047F00079430008BD410008F94200083D41000826
:104800002DE9F0479A4617460E4604464FF0000938
:104810004FF02008089D39E0681C37D0FCF736FFC0
:10482000A0EB0A00A84222D80DB32068016849070E
:104830002CD5C069C043000528D421684FF400601E
:1048400008622068016821F4D071016020688168E5
:1048500021F001018160C4F88480C4F88880C4F824
:104860008C8000BF84F880900320BDE8F08720682A
:10487000016821F4D07101602068816821F0010194
:104880008160C4F88480C4F88880EBE72068C06940
:1048900036EA000004D00020B842BDD00020E4E792
:1048A0000120F9E70148FEF713BA00004003002099
:1048B000FEE700000FB4084B10B504A902AA039844
:1048C00000F0EEF8044602A9002000F06CFC20463F
:1048D00010BC5DF814FB0000A75100080907090E81
:1048E000002804DB00F1E02080F80014704700F09D
:1048F0000F0000F1E02080F8141D704702E008C8A6
:10490000121F08C1002AFAD170477047002001E049
:1049100001C1121F002AFBD1704700002DE9FF5F83
:1049200082B00021DDE90430020DDDF840B0034320
:1049300018D044F61050A2F2FF32424315141198D9
:1049400001281FD0A5EB0B00401C5FEA000A4FF0C6
:1049500000064E4FDFF83891B046504615D5CAF1E3
:10496000000413E0119801244AA3012801D16FEA41
:104970000B010298119AC0E90031C0E9024206B069
:10498000BDE8F09FCBF10000DFE704460021404A7C
:10499000491842EB0450CDE9001012E0E00707D0BF
:1049A00032463B4640464946FBF733FD8046894642
:1049B00032463B4610461946FBF72BFD06460F468E
:1049C0006410002CEAD1DDE90401DDE90023BAF12D
:1049D000000F06DAFBF71DFD42464B46FBF719FDBB
:1049E00005E0FBF788FD42464B46FBF784FD044695
:1049F0000E460022284BFBF725FE03D84FF0FF3070
:104A0000014607E00022254B20463146FBF75AFCC1
:104A1000FBF727FF102409E0002C0ADB0A22002301
:104A2000FBF7F8FB039B30321A55641E50EA010273
:104A3000F2D1641C039AC4F111031444119A012A9F
:104A400003D0012208430DD10AE0084304D000201E
:104A50004FF0110B119072E7A3EB0B056D1E0DE0EB
:104A60005B4504DD4FF0000205F1010504E003DAC7
:104A70004FF00002A5F10105002AECD0029811992F
:104A8000C0E90231C0E9004579E7000000001440A8
:104A90000000F03F300000000000F0430000E03F65
:104AA0002DE9FF4F95B09A46884606460025EEE16F
:104AB000252877D100242746F94A0121039400E0F4
:104AC000044316F8013F203B01FA03F01042F7D1EE
:104AD00030782A2811D06FF02F033078A0F13002FF
:104AE000092A16D8039A44F0020402EB820203EB6F
:104AF00042021044761C0390EFE758F8042B03920F
:104B0000002A03DA504244F40054039044F00204B3
:104B1000761C30782E2816D116F8010F44F00404C4
:104B20002A280DD06FF02F023078A0F13003092B26
:104B300009D807EB870302EB4303C718761CF3E79A
:104B400058F8047B761C30786C280FD006DC4C2893
:104B500017D068280DD06A2814D104E0742810D02A
:104B60007A280FD10DE044F400140AE044F48014D4
:104B700001E044F440147278824202D104F58014BA
:104B8000761C761C307866280BD013DC582877D03A
:104B900009DC002875D04528F6D04628F4D04728EF
:104BA0001AD193E118E0632835D0642879D06528BC
:104BB00012D18BE1702873D008DC6728F1D0692806
:104BC0006FD06E280DD06F2806D1ACE073282CD0A2
:104BD000752874D0782853D05246179990476D1C89
:104BE00054E1C4F30250022809D003280DD0D8F8AC
:104BF000001004280DD00D6008F1040846E1D8F833
:104C00000010EA17C1E90052F6E7D8F800100D804D
:104C1000F2E70D70F0E718F8041B8DF80010002083
:104C20008DF80100EB46012003E058F804BB4FF07B
:104C3000FF3061074FF0000102D40DE009F10101DE
:104C40008946B9420FDA8145F8DB1BF809100029C3
:104C5000F4D108E009F1010189468142FADB1BF831
:104C600009100029F6D103985346A0EB0907214605
:104C70003846179A00F080FA284400EB090507E04F
:104C800044E008E10DE01BF8010B524617999047EC
:104C9000B9F10109F7D2534621463846179AF2E096
:104CA00039E00A21C4F302524FF0000B0091022AAE
:104CB00006D058F8040BC117032A09D00AE023E0F4
:104CC00008F1070020F00702F2E80201904605E033
:104CD00000B2C117042A01D140B2C117002906DA77
:104CE0000A460021404261EB02012D2202E022052A
:104CF00004D52B228DF80420012203E0E20701D025
:104D00002022F7E7914657E00A2100E010214FF0FA
:104D1000000B00910BE010214FF0000B44F0040455
:104D20000827009103E008204FF0000B0090C4F327
:104D30000252022A05D058F8040B0021032A08D099
:104D400008E008F1070020F00702F2E802019046AF
:104D500003E080B2042A00D1C0B24FF0000922075C
:104D60002AD53278702A07D0DDF800C08CF0100CFC
:104D70005CEA0B0C05D00EE040228DF804200122E5
:104D800008E050EA010306D030238DF804308DF896
:104D9000052002229146009B83F0080353EA0B038F
:104DA0000AD150EA010201D1620705D530228DF8FF
:104DB00004204FF001097F1E3278582A04D039A20E
:104DC0000C920CAA02920BE03BA2F9E75B46009A18
:104DD000FBF720FA0C9B9B5C029A521E0292137006
:104DE00050EA0102F2D1029804A9081A00F1200B3E
:104DF000600702D524F4803400E001275F4502DD1E
:104E0000A7EB0B0000E0002000EB0B0100900398E3
:104E10004944401A0390E00306D453462146179AAA
:104E2000039800F0A9F90544002706E001A85246BE
:104E3000C05D179990476D1C7F1C4F45F6DBE00362
:104E40000CD553462146179A039800F095F905446E
:104E500004E030205246179990476D1C0099481E77
:104E600000900029F5DC08E002980299524600788B
:104E7000491C0291179990476D1CBBF10001ABF1E1
:104E8000010BF1DC5BE100F065F90544761C30783C
:104E900000287FF40DAE19B02846BDE8F08F000061
:104EA0000928010030313233343536373839616200
:104EB00063646566000000003031323334353637C4
:104EC000383941424344454600000000600700D4A1
:104ED000062708F1070020F00700F0E802238046CB
:104EE00003F0004C5FEA0C0001D097A009E0200518
:104EF00001D596A005E0E00701D095A001E0AFF252
:104F00004C001390307823F0004365280CD006DC69
:104F1000452809D046281DD047287FD13BE0662888
:104F200018D067287AD136E00021112F01DB11203B
:104F300000E0781CCDE9000104A90CA8FFF7EEFC05
:104F4000DDE90D010C9A4FF0000B07F101091092F9
:104F500000914EE04FF000400097CDE9011004A908
:104F60000CA8FFF7DBFCDDE90D020C9B0F994FF05D
:104F7000000B91461093009211B9791C00EB0109C6
:104F8000B7EB090003D4C0F1FF3B07F10109A9EB1E
:104F90000700019042E0012F00DA01270021112FC4
:104FA00001DD112000E03846CDE9000104A90CA87C
:104FB000FFF7B4FCDDE90D010C9A00914FF0000BF6
:104FC000B946109221070FD4009A4A4503DA914658
:104FD00001E0A9F10109B9F1010F05DD109AA9F16C
:104FE0000101515C3029F4D0B84202DA10F1040F0B
:104FF00003DA0121CDE9011010E0002803DC83442D
:10500000A9EB000102E0411C494500DD8946A0EB07
:105010000B00401C01904FF000400290200705D487
:105020000198484502DB4FF0FF30019000208DF8D9
:105030004B0002980DF14B07B0F1004F25D0022034
:105040000C902B200D90029800280CDA4042029020
:105050002D200D9007E00A210298FBF727FB303145
:10506000029007F8011D0C99481E0C900029F2DCF3
:1050700002980028EFD1791E0D980870307800F062
:10508000200040F0450007F8020D11A8C01BC01D0C
:1050900002901398007800B1012000EB09010198FB
:1050A00001EBE071029801440398401A401E0390FE
:1050B000E00306D453462146179A039800F05CF8A3
:1050C00005441398007818B15246179990476D1C03
:1050D000E00323D553462146179A039800F04CF875
:1050E00005441BE0BBF1000F07DB0098584504DDC9
:1050F0001098179910F80B0001E0179930205246CC
:10510000904701980BF1010B401E05F1010501903C
:1051100004D12E205246179990476D1CB9F1000119
:10512000A9F10109DEDC05E017F8010B52461799D9
:1051300090476D1C0299481E02900029F4DC5346EA
:105140002146179A03989EE62D0000002B000000D0
:10515000200000002DE9F041044600251E461746B8
:10516000880404D405E039462020B0476D1C641E35
:10517000F9D52846BDE8F0812DE9F0410446002527
:105180001E469046C80301D5302700E0202788043A
:1051900004D505E041463846B0476D1C641EF9D57C
:1051A0002846BDE8F0810A68531C0B6010707047F8
:1051B0002DED088B88B0FCF777FAFEF796FDFEF729
:1051C0006FFAFEF775FBFEF7D5FAFEF71DFBFEF74B
:1051D00029FAFEF791FBFE48FDF7F2F8FEF7CEF84C
:1051E0000020FEF723F80020FEF722F94FF6FF70AB
:1051F000FEF732F90421F748FDF740FB0021F6489D
:10520000FDF73CFB0421F448FDF738FB0122F3498C
:10521000F348FDF70FFF0020FEF7B6F9F14EDFF877
:10522000C883F24F00259FEDF29B9FEDF3BBDFF8A3
:10523000D0A3DFF8D0B39FEDF48BF648DFF8D0931E
:1052400000F11E0106911E3105911E3104911E319F
:1052500003913C3102911E31F030CDE900013088DC
:105260000A2813D33580FDF77DFFEB48017841B95B
:1052700098F80010022904D1E8498A783AB100224E
:105280008A70E64CA17821B1012944D08BE001223B
:10529000F6E7817839B998F80010022903D1E1784E
:1052A00081F00101E170C07828B998F80000022867
:1052B00001D101206070DAA10698FFF7FBFA94EDA6
:1052C000040BDBA153EC102B0598FFF7F3FA94EDD8
:1052D000060BDBA153EC102B0498FFF7EBFADC482C
:1052E000DCA102680398FFF7E5FA94ED080BDDA155
:1052F00053EC102B0298FFF7DDFA94ED0A0BDEA1B8
:1053000053EC102B0198FFF7D5FAE07808B1DFA134
:1053100046E0E2A144E04178A1B998F800100229E2
:1053200010D1A18823460A3189B2A180E2880A32CD
:1053300092B2E2803C2901D90A2199803C2A01D904
:105340000A21E180807878B998F8000002280BD112
:10535000208942F2107200F57A7080B2208190426A
:1053600002D94FF47A702081D0A10698FFF7A2FAF3
:10537000A288D2A10598FFF79DFAE288D3A10498EC
:10538000FFF798FA2289D5A10398FFF793FAD7A1DE
:105390000298FFF78FFAD5A10198FFF78BFAD3A1F6
:1053A0000098FFF787FA38886428FFF458AF3D80EB
:1053B000FEF764FCD248FBF7D1FA984C84ED030A5F
:1053C000E078002871D010EE100A4FF0804188423A
:1053D00001DD607828B16078012805D002287CD0F2
:1053E000C4E00120E070607002206070DAF8000014
:1053F00000EB0B02B2F1CA7F52D2FBF7F8F89FED37
:10540000C1AB53EC1A2BFAF7FEFF53EC192BFBF749
:1054100000F894ED041B53EC112BFBF713F9DAF8A9
:10542000000014D2FBF7E3F853EC1A2BFAF7EBFF6A
:10543000B0EE491AF0EE691A53EC112BFAF7E9FFB6
:1054400094ED041B53EC112BFAF7DDFF13E0FBF78F
:10545000CEF853EC1A2BFAF7D6FFB0EE491AF0EE5D
:10546000691A53EC112BFAF7D4FF94ED041B53EC9B
:10547000112BFAF7CBFFC4E90801DAF80000FBF7BB
:10548000B6F853EC1A2BFAF7BEFFB0EE491AF0EE5D
:10549000691A53EC112BFAF7BCFFC4E9040111E0BF
:1054A000484503DB84ED04BB0CE073E05549C94378
:1054B000884207DA94ED040B84ED080B9FED930B03
:1054C00084ED040B9349086800EB0B02B2F1CA7F2C
:1054D0007AD200BFFBF78BF800E055E09FED89AB77
:1054E00053EC1A2BFAF78FFF53EC182BFAF791FFB6
:1054F00094ED061B53EC112BFBF7A4F885480068CC
:1055000063D2FBF774F853EC1A2BFAF77CFFB0EE7A
:10551000481AF0EE681A53EC112BFAF77AFF94ED63
:10552000061B53EC112BFAF76EFF00BFC4E90A010A
:1055300078480068FBF75BF853EC1A2BFAF763FF27
:10554000B0EE481AF0EE681A53EC112BFAF761FF2F
:10555000C4E906010AE09FED700B05E094ED060B2F
:1055600084ED0A0B9FED690B84ED060BA088FBF719
:1055700031F894ED080B53EC102BFBF74BF8207827
:1055800024D240F0010047E110EE100A8842EDDA23
:105590006570EBE760780128E8D16570DAF8000003
:1055A00000EB0B02B2F1CA7F11D2FBF720F89FED9E
:1055B00055AB53EC1A2BFAF726FF53EC192BFAF7DD
:1055C00028FF94ED041BABE007E10EE122E1ECE0E3
:1055D000F40200205C020020A80200207E000020CF
:1055E00040030020800000207C000020820000207A
:1055F0000000000000000240000000000080664043
:105600005C000020FFFFDFBE000000000000F23F52
:105610000000B44290000020840000200000002020
:105620002020202020202020444154410000000060
:10563000202020613A252E31662020200000000025
:10564000202020623A252E31662020200000000014
:1056500050000020202020663A25642020202020B1
:105660000000000020202061783A252E306620209E
:10567000202020200000000020202062783A252EE3
:105680003066202020202020000000002020206DF7
:105690006F64653A42202020202020002020206DC9
:1056A0006F64653A41202020202000002020202027
:1056B0002020202050415041000000002020205098
:1056C00061783A256420202020000000202020500E
:1056D00062783A25642020202000000020202050FD
:1056E000663A256420202020200000002020202071
:1056F00020202020202020202020202020202000CA
:10570000F001002000000000000024400000000024
:1057100000000000680000200000000000805640EB
:1057200053EC112BFAF78EFFDAF8000014D2FAF7D7
:105730005EFF53EC1A2BFAF766FEB0EE491AF0EE54
:10574000691A53EC112BFAF764FE94ED041B53EC29
:10575000112BFAF758FE13E0FAF749FF53EC1A2B16
:10576000FAF751FEB0EE491AF0EE691A53EC112B1C
:10577000FAF74FFE94ED041B53EC112BFAF746FE9B
:10578000C4E90801DAF80000FAF731FF53EC1A2BEC
:10579000FAF739FEB0EE491AF0EE691A53EC112B04
:1057A000FAF737FEC4E904010FE0484502DD84ED55
:1057B00004BB0AE04B49884207DA94ED040B84ED00
:1057C000080B1FED2E0B84ED040B474A106800EB0D
:1057D0000B01B1F1CA7FFFF47DAE48453FF7BBAE88
:1057E00040498842FFF6BAAEC0E6FAF700FF53EC34
:1057F0001A2BFAF708FEB0EE481AF0EE681A53ECCE
:10580000112BFAF706FE94ED061B53EC112BFAF759
:10581000FDFD8BE620F001002070E088FAF7DAFE4B
:1058200094ED0A1B53EC112BFAF7F4FE207802D208
:1058300040F0020001E020F0020020702B48218996
:1058400000688842207802D940F0040001E020F08E
:1058500004002070E078002820781DD020F010008F
:1058600020701FED530B53EC102B94ED060B51ECF5
:10587000100BFAF727FD94ED041B53EC112BFAF7EC
:10588000C2FD1FED601B53EC112BFAF7C3FE20780D
:1058900005D240F0200004E040F01000E0E720F0E6
:1058A00020002070C0B2FDF76FFE18200699FDF7AA
:1058B00023FD30200599FDF71FFD48200499FDF7D1
:1058C0001BFD60200399FDF717FD90200299FDF75D
:1058D00013FDA8200199FDF70FFDC0200099FDF7E9
:1058E0000BFDBCE4000020416800002050000020B7
:1058F000010002000400060008000A000C0010006D
:1059000020004000800000010101010307010000A8
:10591000080402040801010100000000000000006A
:105920000102030406070809000000000102030445
:105930000000000000000000000000000000000067
:105940000000000000000000000000000000000057
:105950000000000000000000000000000000000047
:1059600000008001800180018001800180018001B0
:105970008001800180018001800180010000000021
:105980008001800100000000000000000000000015
:1059900000000000CC00CC00CC00CC00CC00CC003F
:1059A00000000000000000000000000000000000F7
:1059B00000000000000000000000000000000000E7
:1059C000000000000000000000000000600C600CFF
:1059D000600C30063006FE1FFE1F30063807180325
:1059E000FE1FFE1F180318038C018C018C010000A0
:1059F00000008000E003F80F9C0E8C1C8C188C00BB
:105A00009800F801E007800E801C8C188C189C18F8
:105A1000B80CF00FE00380008000000000000000E0
:105A20000000000000000E181B0C110C11061106DE
:105A3000110311039B018E01C038C06C60446044A7
:105A4000304430441844186C0C380000000000004A
:105A50000000E001F0033807180618063003F001D3
:105A6000F000F8009C310E33061E061C061C063F93
:105A7000FC73F021000000000000000000000000A6
:105A8000000000000C000C000C000C000C000C00CE
:105A90000000000000000000000000000000000006
:105AA00000000000000000000000000000000000F6
:105AB0000000000200038001C000C0006000600020
:105AC0003000300030003000300030003000300056
:105AD00060006000C000C000800100030002000000
